:100000000C945D000C9485000C9485000C94850084
:100010000C9485000C9485000C9485000C9485004C
:100020000C9485000C9485000C9485000C94E503D9
:100030000C9485000C9485000C9485000C9485002C
:100040000C949B030C9485000C9469030C9443035B
:100050000C9485000C9485000C9485000C9485000C
:100060000C9485000C94850000000008000201003B
:100070000003040700000000000000000000000072
:10008000250028002B0000000000240027002A0083
:10009000040404040404040402020202020203032E
:1000A0000303030301020408102040800102040836
:1000B0001020010204081020BC0411241FBECFEF41
:1000C000D8E0DEBFCDBF11E0A0E0B1E0E2ECFEE0A1
:1000D00002C005900D92A431B107D9F722E0A4E146
:1000E000B1E001C01D92A331B207E1F710E0CDE508
:1000F000D0E004C02197FE010E945907CC35D107FA
:10010000C9F70E94F4040C945F070C94000090E07F
:10011000FC01EC55FF4F249180579F4FFC018491C7
:10012000882399F090E0880F991FFC01EA57FF4F50
:10013000A591B491FC01E458FF4F859194918FB73C
:10014000F894EC91E22BEC938FBF0895AF92BF929D
:10015000CF92DF92EF92FF920F931F93CF93DF9393
:100160006C017B018B01040F151FEB015E01AE18C2
:10017000BF08C017D10759F06991D601ED91FC91E4
:100180000190F081E02DC6010995892B79F7C50111
:10019000DF91CF911F910F91FF90EF90DF90CF9063
:1001A000BF90AF900895FC01538D448D252F30E012
:1001B000842F90E0821B930B541710F0CF96089574
:1001C00001970895FC01918D828D981761F0A28DA1
:1001D000AE0FBF2FB11D5D968C91928D9F5F9F7367
:1001E000928F90E008958FEF9FEF0895FC01918D1D
:1001F000828D981731F0828DE80FF11D858D90E08A
:1002000008958FEF9FEF0895FC01918D228D892F26
:1002100090E0805C9F4F821B91098F73992708950E
:100220008DE691E00E94040121E0892B09F420E091
:10023000822F089580E090E0892B29F00E94100120
:1002400081110C9400000895FC01A48DA80FB92F12
:10025000B11DA35ABF4F2C91848D90E001968F73EE
:100260009927848FA689B7892C93A089B1898C910D
:10027000837080648C93938D848D981306C002885C
:10028000F389E02D80818F7D80830895EF92FF9226
:100290000F931F93CF93DF93EC0181E0888F9B8DA9
:1002A0008C8D98131AC0E889F989808185FF15C063
:1002B0009FB7F894EE89FF896083E889F989808186
:1002C0008370806480839FBF81E090E0DF91CF9155
:1002D0001F910F91FF90EF900895F62E0B8D10E077
:1002E0000F5F1F4F0F731127E02E8C8D8E110CC0E6
:1002F0000FB607FCFACFE889F989808185FFF5CF31
:10030000CE010E942401F1CFEB8DEC0FFD2FF11DEA
:10031000E35AFF4FF0829FB7F8940B8FEA89FB896D
:1003200080818062CFCFCF93DF93EC01888D8823CB
:10033000B9F0AA89BB89E889F9898C9185FD03C048
:10034000808186FD0DC00FB607FCF7CF8C9185FF2D
:10035000F2CF808185FFEDCFCE010E942401E9CF4D
:10036000DF91CF91089590E0FC01E859FF4F24916F
:10037000FC01EC55FF4F3491FC01E057FF4FE49135
:10038000EE23C9F0222339F0233001F1A8F4213003
:1003900019F1223029F1F0E0EE0FFF1FE458FF4F72
:1003A000A591B4918FB7F894EC91611126C0309566
:1003B0003E233C938FBF08952730A9F02830C9F021
:1003C000243049F7809180008F7D03C080918000A8
:1003D0008F7780938000DFCF84B58F7784BDDBCFAC
:1003E00084B58F7DFBCF8091B0008F778093B00074
:1003F000D2CF8091B0008F7DF9CF3E2BDACF1F9303
:10040000CF93DF93182FEB010E948700209739F4D8
:1004100060E0812FDF91CF911F910C94B301CF3F0A
:10042000D10511F461E0F5CFE12FF0E0E859FF4F7D
:10043000E491E33031F140F4E130B1F0E230E1F049
:10044000C038D1057CF7E4CFE73029F1E83059F125
:10045000E430B1F780918000806280938000D09377
:100460008B00C0938A0004C084B5806884BDC7BD7A
:10047000DF91CF911F91089584B5806284BDC8BD7E
:10048000F7CF80918000806880938000D0938900AE
:10049000C0938800EDCF8091B00080688093B00059
:1004A000C093B300E5CF8091B00080628093B0002C
:1004B000C093B400DDCF3FB7F89480913B01909199
:1004C0003C01A0913D01B0913E0126B5A89B05C01D
:1004D0002F3F19F00196A11DB11D3FBFBA2FA92FC3
:1004E000982F8827BC01CD01620F711D811D911DC0
:1004F00042E0660F771F881F991F4A95D1F708952C
:100500008F929F92AF92BF92FF920F931F93CF93C0
:10051000DF93FC01F0808BE08F1508F44FC08281DF
:1005200008E512E0081B110987FD1395000F111F44
:10053000000F111F8181C8E8D0E0C81BD10987FDD9
:10054000D395CC0FDD1FCC0FDD1F4E010D2E000CFF
:10055000AA08BB08DB01653B710514F0A4EBB0E011
:100560009801012E000C440B550B281939094A0932
:100570005B090E94140724EB30E040E050E00E9449
:10058000EA06820E931EA41EB51E8C169D062CF044
:10059000E801801691060CF4E4012297CC0FDD1FD0
:1005A0002FB7F8948F2D90E0FC01EE0FFF1FE80F9E
:1005B000F91FEA5EFE4FD283C1832FBFDF91CF9137
:1005C0001F910F91FF90BF90AF909F908F900895D3
:1005D0001F93CF93DF93EC01162F88818C3008F0A6
:1005E0004DC0862F0E9487008881282F30E0F901B6
:1005F000EE0FFF1FE20FF31FEA5EFE4F1F736081D5
:10060000607C612B608319821A822CE0622F0E9429
:100610004D07829FB001112430E020E0AB01420F72
:10062000531FFA01EE0FFF1FE40FF51FEA5EFE4FA6
:10063000908196FD16C02F5F3F4F2C30310571F72A
:1006400081110FC01092800082E08093810010928F
:10065000850010928400B19A80916F00826080932F
:100660006F00E8818E2F90E0FC01EE0FFF1FE80F76
:10067000F91FEA5EFE4F8081806480838881DF916C
:10068000CF911F9108951F920F920FB60F921124D0
:100690002F933F934F935F936F937F938F939F938A
:1006A000AF93BF93EF93FF938DE691E00E942401F7
:1006B000FF91EF91BF91AF919F918F917F916F913A
:1006C0005F914F913F912F910F900FBE0F901F9010
:1006D00018951F920F920FB60F9211242F938F939C
:1006E0009F93EF93FF93E0917D01F0917E018081D4
:1006F000E0918301F091840182FD1BC09081809183
:1007000086018F5F8F7320918701821741F0E091FE
:100710008601F0E0E359FE4F958F80938601FF91AB
:10072000EF919F918F912F910F900FBE0F901F907F
:1007300018958081F4CF1F920F920FB60F9211245B
:100740002F933F938F939F93AF93BF9380914001DB
:1007500090914101A0914201B091430130913A0141
:1007600023E0230F2D3758F50196A11DB11D2093CD
:100770003A018093400190934101A0934201B093CC
:10078000430180913B0190913C01A0913D01B091CA
:100790003E010196A11DB11D80933B0190933C0148
:1007A000A0933D01B0933E01BF91AF919F918F9176
:1007B0003F912F910F900FBE0F901F90189526E834
:1007C000230F0296A11DB11DD2CF1F920F920FB61B
:1007D0000F9211242F933F934F935F936F937F93C7
:1007E0008F939F93AF93BF93CF93DF93EF93FF9339
:1007F00080911401C0911501D0E087FF24C01092B0
:10080000850010928400809114018F5F8093140101
:1008100080911401082E000C990B8C179D0724F46D
:10082000809114018C30C4F18091840090918500F6
:10083000049680349C4908F47AC080918400909199
:100840008500049676C080911401082E000C990B47
:100850008C179D07C4F6E09114018E2FEE0F990BB3
:10086000FC01EE0FFF1FE80FF91FEA5EFE4F8081CB
:1008700086FFC9CFE09114018E2FEE0F990BFC017A
:10088000EE0FFF1FE80FF91FEA5EFE4F808160E068
:100890008F730E94B301B7CF2091840030918500FF
:1008A000E09114018E2FEE0F990BFC01EE0FFF1F4C
:1008B000E80FF91FEA5EFE4F81819281820F931F3C
:1008C0009093890080938800E09114018E2FEE0FA1
:1008D000990BFC01EE0FFF1FE80FF91FEA5EFE4FB8
:1008E000808186FF11C0E09114018E2FEE0F990BCD
:1008F000FC01EE0FFF1FE80FF91FEA5EFE4F80813B
:1009000061E08F730E94B301FF91EF91DF91CF916E
:10091000BF91AF919F918F917F916F915F914F9117
:100920003F912F910F900FBE0F901F90189580E46C
:100930009CE990938900809388008FEF8093140145
:10094000E3CFFC01909115019C3098F481E0890F70
:10095000809315019083892F90E0FC01EE0FFF1F1B
:10096000E80FF91FEA5EFE4F88EB9BE092838183DC
:1009700008958FEF80830895EDE6F1E013821282EF
:1009800088EE93E0A0E0B0E084839583A683B783EC
:1009900085E091E09183808385EC90E09587848762
:1009A00084EC90E09787868780EC90E0918B808B39
:1009B00081EC90E0938B828B82EC90E0958B848B22
:1009C00086EC90E0978B868B118E128E138E148E90
:1009D00080E192E00E94A1048DE092E00E94A104D7
:1009E0008AE092E00C94A104789484B5826084BD7E
:1009F00084B5816084BD85B5826085BD85B5816023
:100A000085BD80916E00816080936E0010928100A0
:100A1000809181008260809381008091810081605B
:100A2000809381008091800081608093800080911C
:100A3000B10084608093B1008091B00081608093A8
:100A4000B00080917A00846080937A0080917A006F
:100A5000826080937A0080917A00816080937A002E
:100A600080917A00806880937A001092C10063E0E0
:100A700070E080E192E00E94E80265E070E08DE0C5
:100A800092E00E94E80266E070E08AE092E00E9454
:100A9000E8028BE00E9487008CE00E9487008DE0D6
:100AA0000E9487008AE00E94870088E00E948700F9
:100AB00087E00E94870060916A0170916B018BE072
:100AC0000E94FF0160916801709169018AE00E94B3
:100AD000FF016AE570E08DE092E00E94800263E72A
:100AE00070E08AE092E00E94800264EB70E080E1B6
:100AF00092E00E9480020E945B024B015C0124E6AE
:100B0000C22ED12CE12CF12C0E945B0268197909CC
:100B10008A099B09683E734081059105A8F321E08D
:100B2000C21AD108E108F10888EE880E83E0981E09
:100B3000A11CB11CC114D104E104F10429F7E09116
:100B40007D01F0917E0182E08083E0917901F09156
:100B50007A011082E0917B01F0917C018FEC80831F
:100B600010928501E0918101F091820186E08083FD
:100B7000E0917F01F0918001808180618083E0912C
:100B80007F01F0918001808188608083E0917F0106
:100B9000F0918001808180688083E0917F01F091F5
:100BA000800180818F7D80838DEFC82ED12CE12C38
:100BB000F12C00E010E09DE1A92EBB24B394CFEF0F
:100BC000D0E08DE691E00E940401892B59F08DE67A
:100BD00091E00E94E2008F3F09F0C7C010923F01F0
:100BE00010926C0180916C01882309F494C080916B
:100BF0004C01813009F0D8C080914D018D3F09F042
:100C0000C9C0D0936B01C0936A01D0936901C093AE
:100C10006801B0924901A0914A01B0E02CE43FEF95
:100C20004FEF5FEF0E940907A70196010E94EA06B5
:100C30002C543F4F4F4F5F4F622F70E08DE092E09A
:100C40000E948002A0914B01B0E02DE83FEF4FEFF2
:100C50005FEF0E940907A70196010E94EA06CA01F8
:100C6000B9016C547F4F8F4F9F4F8AE092E00E94F2
:100C7000800280914E018130F9F490910001992316
:100C8000D9F0909149019923B9F0809348011092CD
:100C900000012FB7F8948091400190914101A091FB
:100CA0004201B09143012FBF8093440190934501CD
:100CB000A0934601B09347012FB7F894809140016B
:100CC00090914101A0914201B09143012FBF209129
:100CD0004801222301F14091440150914501609166
:100CE000460170914701841B950BA60BB70B6DE76E
:100CF00070E086399105A105B10548F08C3221E0FC
:100D00009207A105B10508F05AC064EB70E080E1DC
:100D100092E00E94800260916A0170916B018BE009
:100D20000E94FF0160916801709169018AE00E9450
:100D3000FF0161E08CE00E94B30160E08DE00E9461
:100D4000B30161E088E00E94B30160E087E00E94A7
:100D5000B3010115110509F434CF0E941001882355
:100D600009F42FCF0E9400002CCF8E3F19F4B092CF
:100D70006C0138CF90913F01E92FF0E0E65BFE4F28
:100D800080839F5F9E3119F090933F012BCFA092FB
:100D90003F0128CF90E090936B0180936A0190937C
:100DA00069018093680135CF10926B0110926A013E
:100DB0001092690110926801109249012CCF8C3277
:100DC0009140A105B10509F4A6CF10924801B09257
:100DD0000001A1CF052E97FB1EF400940E9401078D
:100DE00057FD07D00E941C0707FC03D04EF40C945B
:100DF000010750954095309521953F4F4F4F5F4FDC
:100E0000089590958095709561957F4F8F4F9F4F76
:100E100008950E943E07A59F900DB49F900DA49F3A
:100E2000800D911D11240895B7FF0C9409070E94AD
:100E30000907821B930B0895A1E21A2EAA1BBB1B64
:100E4000FD010DC0AA1FBB1FEE1FFF1FA217B30796
:100E5000E407F50720F0A21BB30BE40BF50B661FAC
:100E6000771F881F991F1A9469F760957095809570
:100E700090959B01AC01BD01CF010895A29FB001E7
:100E8000B39FC001A39F700D811D1124911DB29FBE
:100E9000700D811D1124911D0895991B79E004C0E6
:100EA000991F961708F0961B881F7A95C9F78095A9
:100EB0000895EE0FFF1F0590F491E02D0994F8942A
:020EC000FFCF62
:100EC20001000000004601A600D30093010401E2E4
:040ED20000F6000026
:00000001FF
